:1000000002EF00F0F86AD09EC150C00B0F09C16E1C
:10001000070EB46E0BD0830E056EFF0E066E052E16
:1000200001D003D0062EFED7FAD71200000EF16ED3
:10003000FF0E936E000E956EE60ED36E81B403D064
:1000400081B604D0FBD781A601D0F8D783948380F2
:100050008398838A500E076E074E03D00BED00F095
:10006000FBD7839083821E0E076E074E03D00BEDE5
:1000700000F0FBD783928384839A8386500E076EA9
:10008000074E03D00BED00F0FBD7839683881E0E3E
:0E009000076E074EDBD70BED00F0FBD7030029
:020000040030CA
:0E0000003FCC3E1E0007A1000FC00FE00F40D6
:00000001FF
;PIC18F4550
;CRC=F6B0  CREATED="11-jun-21 20:37"
